:100000000C9488010C94B0230C9489230C94BC01AB
:100010000C94BC010C94BC010C94BC010C94BC016C
:100020000C94BC010C94BC010C94BC010C94BC015C
:100030000C94BC010C94BC010C94BC010C94BC014C
:100040000C9443230C94BC010C9411230C94EB22CC
:100050000C94BC010C94BC010C94BC010C94BC012C
:100060000C94D7230C94BC010C9400000C94000059
:100070000C9400000C94000045786974005265737C
:1000800074617274204E6F773F0053657420446131
:1000900074652F54696D653F004D6F6E7468004440
:1000A0006179005965617200486F7572004D696E23
:1000B00075746500537461727420486F75720053D3
:1000C000746F7020486F7572005374617274204DA4
:1000D000696E0053746F70204D696E00352E322E9C
:1000E000312D4C475400000000085002010000036D
:1000F0000407000000000000000000005665722E9A
:1001000020004F70656E204556534500000E111DAE
:10011000150E0000000E0C1F03060C0800080C0E44
:100120000C08000000000E0E0E000000000E151757
:10013000110E000053656C66205465737400506F97
:10014000776572204F6E0054656D706572617475CD
:1001500072652043686B004746492053656C6620F2
:100160005465737400537475636B2052656C6179C8
:100170002043686B0047726F756E64204368656347
:100180006B0056656E742052657127642043686564
:10019000636B0044696F646520436865636B003876
:1001A0002E322E330000000000250028002B002EE8
:1001B0000000000000240027002A002D0004040491
:1001C0000404040404020202020202030303030300
:1001D0000305050505050505030102040810204077
:1001E0008001020408102001020408102002080106
:1001F0000410402040544553542044495341424C3C
:1002000045440052657374617274696E672E2E2EB8
:1002100000484947482054454D5000536C6565706F
:10022000696E670047464349005445535420464190
:10023000494C45440044697361626C6564004F50E9
:10024000454E2052454C415900535455434B205282
:10025000454C4159004E4F2047524F554E44004F98
:100260005645522054454D50455241545552450033
:1002700047464349204641554C5400534552564940
:1002800043452052455155495245440044494F4445
:100290004520434845434B0056454E542052455156
:1002A00055495245440045565345204552524F52F8
:1002B000004368617267696E6700436F6E6E6563C5
:1002C00074656400526561647900536574757000EB
:1002D00053657474696E67730054696D65204C6969
:1002E0006D69740044656C61792054696D657200B4
:1002F000446174652F54696D650052657374617251
:1003000074004D61782043757272656E7400EF243D
:1003100011241FBECFEFD8E0DEBFCDBF14BE0FB695
:10032000F894A89580916000886180936000109295
:1003300060000FBE13E0A0E0B1E0EAEDF8E602C015
:1003400005900D92A837B107D9F726E0A8E7B3E0EA
:1003500001C01D92A835B207E1F711E0C8E8D1E06D
:1003600004C02197FE010E945531C738D107C9F753
:100370000E9473260C946B340C94000090915E04E0
:100380009111FCCF91E090935E0490935D042FEF68
:1003900020935C0410925B04260F20935A049093E0
:1003A000590490915904880F892B809359048091A6
:1003B00058048130D9F410925804809159048093E4
:1003C000BB0085EC8093BC0080915E048130E1F33A
:1003D00080915B04861710F460915B04A8E3B4E09D
:1003E000E8E1F4E080E0861303C0089585EEEACFEB
:1003F0009D9191938F5FF7CF2FB7F894009761F499
:1004000040E85EE350938B0040938A009093F2059E
:100410008093F1052FBF089510928B0010928A00EF
:10042000F5CF2091170481E0213208F040C080917F
:100430005E048111FCCF8091160492E090935E04DB
:1004400091E090935D049FEF90935C0410925B04A5
:1004500020935A04A6EFB3E0E8E3F4E090E0291318
:100460002DC01092590490915904880F892B8093C4
:10047000590480915804813029F5109258048091D4
:1004800059048093BB0085EC8093BC0080915E048E
:100490008230E1F380915C048F3FB1F080915C0485
:1004A0008032A1F080915C04803391F084E010925E
:1004B000F503109217041092F40308953D913193BF
:1004C0009F5FCDCF85EEE0CF80E0F1CF82E0EFCF30
:1004D00083E0EDCF909144058091460591110BC0CA
:1004E00020914505211107C0811110C08091470559
:1004F000811103C00895981309C081E0209145053A
:1005000090914705291303C080E0089581E0089584
:10051000809123068170089590E0FC01E752FE4F20
:10052000249183549E4FFC018491882399F090E09C
:10053000880F991FFC01EF54FE4FA591B491FC0167
:10054000EB55FE4F859194918FB7F894EC91E22B87
:10055000EC938FBF0895809124068E3F90F0809198
:100560002206909123068B7F909323068093220688
:100570008FEF809325061092240690E080E00C9483
:10058000FC01089508959C01265031092E32310551
:10059000B0F44AE051E0849F9001859F300D949F14
:1005A000300D112430938B0020938A0081E090E07D
:1005B0009093F2058093F10590E080E008959C010E
:1005C000245331092D31310578F4092E000CAA0B82
:1005D000BB0B80569F4FAF4FBF4F9C0186E0220F51
:1005E000331F8A95E1F7DECF81E090E008954091D6
:1005F0002206509123068823E9F080934F06282F86
:1006000030E0A4E8B3E00E945B3160935006709341
:100610005106809352069093530680914305882398
:1006200019F081E080934805406150932306409380
:10063000220608951092500610925106109252060A
:100640001092530610924F064F7E5093230640930C
:1006500022061092480508958091D1039091D0030D
:10066000891B990B0895AF92BF92CF92DF92EF92C0
:10067000FF920F931F93CF93DF936C017B018B014C
:10068000040F151FEB015E01AE18BF08C017D1079C
:1006900059F06991D601ED91FC910190F081E02D26
:1006A000C6010995892B79F7C501DF91CF911F917B
:1006B0000F91FF90EF90DF90CF90BF90AF90089593
:1006C000FC01538D448D252F30E0842F90E0821B58
:1006D000930B541710F0CF96089501970895FC01DD
:1006E000918D828D981761F0A28DAE0FBF2FB11D35
:1006F0005D968C91928D9F5F9F73928F90E008958D
:100700008FEF9FEF0895FC01918D828D981731F046
:10071000828DE80FF11D858D90E008958FEF9FEF9A
:100720000895FC01918D228D892F90E0805C9F4F70
:10073000821B91098F73992708958FE594E00E9499
:10074000910321E0892B09F420E0822F089580E0B5
:1007500090E0892B29F00E949D0381110C940000E8
:100760000895FC01A48DA80FB92FB11DA35ABF4F46
:100770002C91848D90E001968F739927848FA689A0
:10078000B7892C93A089B1898C91837080648C93F4
:10079000938D848D981306C00288F389E02D8081A3
:1007A0008F7D80830895EF92FF920F931F93CF93D5
:1007B000DF93EC0181E0888F9B8D8C8D98131AC09C
:1007C000E889F989808185FF15C09FB7F894EE8983
:1007D000FF896083E889F9898081837080648083E0
:1007E0009FBF81E090E0DF91CF911F910F91FF902B
:1007F000EF900895F62E0B8D10E00F5F1F4F0F73D3
:100800001127E02E8C8D8E110CC00FB607FCFACF8D
:10081000E889F989808185FFF5CFCE010E94B10377
:10082000F1CFEB8DEC0FFD2FF11DE35AFF4FF0825E
:100830009FB7F8940B8FEA89FB8980818062CFCFC4
:10084000CF93DF93EC01888D8823B9F0AA89BB8907
:10085000E889F9898C9185FD03C0808186FD0DC0F2
:100860000FB607FCF7CF8C9185FFF2CF808185FF13
:10087000EDCFCE010E94B103E9CFDF91CF91089572
:1008800090E0FC01EA51FF4F2491FC01E752FE4F3A
:10089000349183549E4FFC018491882361F122237B
:1008A000C9F021502B30B0F4E22FF0E0E65AFB4FB4
:1008B0000C9455318004840465047C046A046A0441
:1008C00087048D04910497049B04909180009F7786
:1008D00090938000E82FF0E0EE0FFF1FEB55FE4FE6
:1008E000A591B4918FB7F894EC91611128C030951F
:1008F0003E233C938FBF0895909180009F7DE8CF69
:1009000094B59F7794BDE6CF94B59F7DFBCF909132
:10091000B0009F779093B000DDCF9091B0009F7DA5
:10092000F9CF909190009F7790939000D3CF9091C2
:1009300090009F7DF9CF90919000977FF5CF3E2B4F
:10094000D8CF1F93CF93DF93182FEB010E948C0217
:10095000209709F06CC060E0812FDF91CF911F914B
:100960000C944004E330A9F1E43009F074C08091A4
:100970008000806280938000D0938B00C0938A00B7
:100980001FC0EA3009F43FC078F4E830A1F1E93043
:1009900009F061C080919000806880939000D093AE
:1009A0009900C09398000CC0EB30B9F1E03509F024
:1009B00052C0C093A10004C084B5806884BDC7BD87
:1009C000DF91CF911F91089584B5806284BDC8BD29
:1009D000F7CF80918000806880938000D093890059
:1009E000C0938800EDCF8091B00080688093B00004
:1009F000C093B300E5CF8091B00080628093B000D7
:100A0000C093B400DDCF809190008062809390000D
:100A1000D0939B00C0939A00D3CF809190008860C0
:100A200080939000D0939F00C0939E00C9CFCF3F8A
:100A3000D105A9F0E12FF0E0EA51FF4FE491E73052
:100A400091F208F09ECFE23009F4BECF08F08ACFD1
:100A5000E13009F4B1CFC038D1050CF47CCF61E0AE
:100A60007BCF3FB7F8948091CC039091CD03A091B8
:100A7000CE03B091CF0326B5A89B05C02F3F19F038
:100A80000196A11DB11D3FBFBA2FA92F982F88270E
:100A9000BC01CD01620F711D811D911D660F771F75
:100AA000881F991F08958F929F92AF92BF92CF9205
:100AB000DF92EF92FF926B017C010E9431054B01A6
:100AC0005C01C114D104E104F104B9F00E943105C4
:100AD000681979098A099B09683E73408105910567
:100AE00080F321E0C21AD108E108F10888EE880EEF
:100AF00083E0981EA11CB11CE4CFFF90EF90DF9023
:100B0000CF90BF90AF909F908F9008952FB7F8949B
:100B10006091C8037091C9038091CA039091CB037F
:100B20002FBF08950895FC0110AE128212A20895FD
:100B3000CF93DF93EC0120E030E0A901E991EE23AF
:100B400091F0AAE0B0E00E9471312E2FEE0F330B2E
:100B500020533109032E000C440B550B260F371F71
:100B6000481F591FEBCFCA01B901DF91CF910895FA
:100B7000FC0190819923D9F080ED890F8A3050F0E3
:100B80008FEB890F863088F08FE9890F8630F0F47B
:100B900089EA890F91819923D1F08295807F20ED98
:100BA000290F2A3030F4820F089589ECF2CF80E0CB
:100BB000F1CF2FEB290F263018F49753890F0895A2
:100BC0002FE9290F263010F49755F8CF80E00895CB
:100BD0008FE594E00C94D3038FE594E00C946F03BD
:100BE0008FE594E00C949103CF93DF93EC0164EFD5
:100BF00071E080E090E00E9453058C81882339F0F9
:100C0000813041F08AE995E0DF91CF91089584EA3F
:100C100095E0FACF8FE995E0F7CFCF92DF92EF9290
:100C2000FF921F93CF93DF93142F1092F303C3EF20
:100C3000D3E02AE0C22ED12CE12CF12CA7019601A1
:100C40000E941431605D6A93B901CA0111506115A7
:100C500071058105910591F7111684F3CE01DF919D
:100C6000CF911F91FF90EF90DF90CF900895CF929A
:100C7000DF92EF92FF926B017C01A89584E0C81689
:100C8000D104E104F10460F063E070E080E090E002
:100C90000E94530583E0C81AD108E108F108EDCF9E
:100CA000C701B601FF90EF90DF90CF900C945305F1
:100CB000DC01ED91FC911197918112968C91892B19
:100CC000818308956115710561F061307105A1F4AA
:100CD000DC01ED91FC911197228112963C91232B1E
:100CE0002283DC01ED91FC911197218112968C9168
:100CF00080958223818308950C9458060895E0918D
:100D0000D0038091D103E81730F4F0E0E85EFB4FA8
:100D1000808190E008958FEF9FEF08959091D00328
:100D20008091D1032FEF3FEF981748F4E92FF0E0BF
:100D3000E85EFB4F208130E09F5F9093D003C901B4
:100D4000089585EE95E00E948E06089521E001C089
:100D5000220F6A95EAF7DC011C962C931C971A96D1
:100D60005C934E931997ED91FC910484F585E02DE9
:100D700060E00994DC01ED91FC910684F785E02D9B
:100D800041E0099581E090E0089580914805811146
:100D90000DC080914305882349F00E946A02882390
:100DA00029F066E08DE495E00C94BA060895DC0124
:100DB000ED91FC910684F785E02D40E009940F93B6
:100DC0001F93CF93DF93CDB7DEB728970FB6F89474
:100DD000DEBF0FBECDBF009104011091050120912F
:100DE00006013091070109831A832B833C8300910C
:100DF00008011091090120910A0130910B010D8326
:100E00001E832F833887FC012781421710F04FEF94
:100E1000420F50E0FC0130854C0F5D1FFA0130316C
:100E200089F4243079F42581620F606828960FB622
:100E3000F894DEBF0FBECDBFDF91CF911F910F9110
:100E40000C94D7062181F0CFCF9341E060E08DE490
:100E500095E00E94DF06C0E160E28DE495E00E942B
:100E6000BA06C150C9F741E060E08DE495E0CF914A
:100E70000C94DF060895089590E080E00895FC0149
:100E800092810190F081E02D8281662319F0982BE8
:100E90009283089590959823FBCF80914E0660E051
:100EA000882301F185E00E94400460E086E00E9412
:100EB000400460E08AE096E00E943F0780912206AD
:100EC000909123068F7B90932306809322060E94A5
:100ED00086056093370670933806809339069093A1
:100EE0003A06089584E096E00E943F0760E087E0BC
:100EF00096E00E943F07DDCF8091F805882321F01E
:100F000081E08093F7050895809122069091230651
:100F1000806890932306809322060E944D0790E0FC
:100F200080E00E94FC0181E08093F605089560E076
:100F300088E496E00E943F0761E08BE496E00E941F
:100F40003F076CE271E080E090E00E94530560E0B2
:100F500088E496E00E943F0760E08BE496E00E9400
:100F60003F0710924706089561E088E496E00E94EA
:100F70003F0760E08BE496E00E943F076CE271E07F
:100F800080E090E00E94530560E088E496E00E94D3
:100F90003F0760E08BE496E00E943F0781E080938A
:100FA00047060895CF92DF92EF92FF920F931F931F
:100FB000CF93DF937C016B0124E630E00FEF13E069
:100FC000D0E0C0E0809102068770806480937C004E
:100FD00080917A00806480937A0080917A0086FD07
:100FE000FCCF9091780080917900892798278927F4
:100FF0009695879596958795C817D90708F441C0A7
:101000008017910708F48C0121503109D9F680919D
:10101000F1059091F205029711F10E94880220914A
:10102000220630912306882371F134603093230621
:10103000209322068091220690912306CB3623E04E
:10104000D20718F19E7F9260909323068093220628
:1010500097FD05C08091470681110E949707E11412
:10106000F10431F0F70111830083F601D183C083CD
:10107000DF91CF911F910F91FF90EF90DF90CF9074
:101080000895EC01C1CF3B7FD1CF916090932306AF
:101090008093220697FDE3CF809147068111DFCF31
:1010A0000E94B407DCCFFC01A081B1819C918281B8
:1010B000982381E009F480E00895A8951092F8053E
:1010C0001092F70583EF95E00E945308882321F0E2
:1010D00081E08093F60508951092F6050895CF9269
:1010E000DF92EF92FF92CF93DF930E9486056B0110
:1010F0007C01D1E0C2E0CC2371F08DE096E00E944B
:101100005308882341F0DD2389F008C0C1110EC0C7
:10111000D0E0C0E016C0DD23D9F3C0E080E196E066
:101120000E945308D82F882389F3D1E00E948605B6
:101130006C197D098E099F0964317105810591053E
:10114000D0F28C2F8D2BDF91CF91FF90EF90DF901D
:10115000CF90089585ED8093BC008091BC0084FD04
:10116000FCCF10925E040895613298F420915E04E1
:10117000243089F460939803282FA8E7B3E0FC019A
:101180008E2F821B861710F080E0089581918D9339
:10119000F7CF81E0089582E00895CF92DF92EF9239
:1011A000FF920F931F93CF93DF937C01CB018A01B2
:1011B0002091F403222389F0EB016B01C40ED51EAC
:1011C000CC15DD0569F06991D701ED91FC91019095
:1011D000F081E02DC7010995F3CF642F0E94B40878
:1011E000C801DF91CF911F910F91FF90EF90DF9099
:1011F000CF900895CF93DF931F92CDB7DEB7698369
:101200002091F4032223F9F020911704203258F0A2
:1012100021E030E0FC013383228390E080E00F90F6
:10122000DF91CF9108958091F503E82FF0E0EA5027
:10123000FC4F998190838F5F8093F503809317040F
:1012400081E090E0ECCF61E0CE0101960E94B4080D
:10125000F7CFDF92EF92FF920F931F93CF93DF931D
:1012600000D000D000D0CDB7DEB781E08093F4038A
:1012700088E6809316041092F5031092170460E03C
:1012800085EE95E00E94FA080E94110267E088E668
:101290000E94BE011092D0038093D10385EE95E0A9
:1012A0000E948E068F77282F30E094E035952795A1
:1012B0009A95E1F7922F990F990F122F191B110F81
:1012C000180F85EE95E00E948E069C0144E035954E
:1012D00027954A95E1F72F703327922F990F990F91
:1012E000022F091B000F080F85EE95E00E948E0665
:1012F0009C0154E0359527955A95E1F72F703327D7
:10130000922F990F990FF22EF91AFF0CF80E85EE15
:1013100095E00E948E0685EE95E00E948E069C0167
:1013200064E0359527956A95E1F72F703327922F62
:10133000990F990FE22EE91AEE0CE80E85EE95E072
:101340000E948E069C0174E0359527957A95E1F709
:101350002F703327922F990F990FD22ED91ADD0CA7
:10136000D80E85EE95E00E948E06AC01E4E055951E
:101370004795EA95E1F74F705527942F990F990FEC
:10138000242F291B220F280F3D2DA701B80180E033
:1013900090E026960FB6F894DEBF0FBECDBFDF916A
:1013A000CF911F910F91FF90EF90DF900895CF9311
:1013B000DF9300D000D000D0CDB7DEB780914305D9
:1013C000882371F10E946A02882351F10E94290941
:1013D000209144054CE38091450590E0249F800DC9
:1013E000911D1124709146052091470530E0749FAE
:1013F000200D311D112470E0549F600D711D1124CA
:1014000028173907B0F46817790730F0261737071F
:10141000A8F08617970780F081E06217730760F4E1
:1014200026960FB6F894DEBF0FBECDBFDF91CF91E9
:1014300008956817790780F780E0F2CF81E0F0CF58
:101440001F93CF93DF93EC0181E08093F40388E650
:10145000809316041092F5031092170460E085EE55
:1014600095E00E94FA082D811AE0822F612F0E94D8
:10147000E030682F660F680F660F620F85EE95E00B
:101480000E94FA082C81822F612F0E94E030682F81
:10149000660F680F660F620F85EE95E00E94FA08EE
:1014A0002B81822F612F0E94E030682F660F680F1A
:1014B000660F620F85EE95E00E94FA0860E085EE07
:1014C00095E00E94FA082A81822F612F0E94E03065
:1014D000682F660F680F660F620F85EE95E00E9419
:1014E000FA082981822F612F0E94E030682F660F51
:1014F000680F660F620F85EE95E00E94FA0828815A
:10150000822F612F0E94E030682F660F680F660FF0
:10151000620F85EE95E00E94FA0860E085EE95E0A6
:101520000E94FA08DF91CF911F910C941102FC01E7
:1015300023812223F1F0262F61816095622360834D
:10154000828191E09093F403809316041092F50346
:101550001092170485EE95E00E94FA080E9411028D
:10156000282F30E081E090E0232B11F090E080E024
:10157000089530E020E0F6CFEF92FF920F931F9393
:10158000CF938C01FC0184E0C0E0262F30E060FFA7
:1015900002C09589C92BB90175956795815031961F
:1015A0008111F3CF413011F4F8014489F8016585C8
:1015B000C62BC42B7801FEE0EF0EF11CF801628906
:1015C0006C2BC7010E94970AF801628960956C2311
:1015D000C701CF911F910F91FF90EF900C94970A44
:1015E0000F931F93CF93DF93062F0F70423041F478
:1015F00040E0602FDF91CF911F910F910C94BC0AB6
:10160000142FEC0170E084E0759567958A95E1F7F9
:10161000CE010E94BC0A412F602FCE01EBCFFC010E
:1016200084858823A1F0218532852115310521F497
:10163000611107C0158606C021303105D9F7611147
:10164000F9CF85876585CF010E960C94970A08958A
:10165000CF93DF93C4E1D0E0A89583EF95E00E949B
:1016600053088823F9F062E370E080E090E00E9484
:101670005305219789F782E012C0C8E2D0E0A8950F
:1016800083EF95E00E9453088823B1F162E370E094
:1016900080E090E00E945305219789F783E0DF9175
:1016A000CF91089581E08093F8051092F705CDE37E
:1016B000D0E08091F7058111E0CF2197F1F261E050
:1016C00089EF95E00E943F0722E580ED90E02150F0
:1016D00080409040E1F700F000F4000060E089EF06
:1016E00095E00E943F0729E580ED90E02150804081
:1016F0009040E1F70000DDCF68EE73E080E090E01D
:101700000E9437061092F6051092F80581E090913C
:10171000F705992309F4C3CF80E0C1CF61E00E94AF
:10172000D70685E593E50197F1F70895DC01149656
:10173000EC91149715968C91E81740F4F0E0EE0FB9
:10174000FF1FE059FE4F8081918108958DE495E05F
:101750000E948E0B90E080E00895CF93DF93EC0120
:10176000423018F08C8188608C834F8368872223F5
:1017700029F0413019F48C8184608C8364E670E038
:1017800080E090E00E9453056C8164FD54C0E881C4
:10179000F9810684F785E02D42E063E0CE010995EA
:1017A0008FE79BEB0197F1F700000000E881F981DA
:1017B0000684F785E02D42E063E0CE0109958FE7CE
:1017C0009BEB0197F1F700000000E881F9810684A6
:1017D000F785E02D42E063E0CE0109958FE396E0C6
:1017E0000197F1F700000000E881F9810684F78590
:1017F000E02D42E062E0CE0109956C816062CE018D
:101800000E94D70684E08D836CE0CE010E94D7064B
:10181000CE010E948E0B82E08E8366E0CE010E9494
:10182000D706E881F9810484F585E02D6FEFCE01BC
:10183000DF91CF9109946062CE010E94D7068FE7B5
:101840009BEB0197F1F7000000006C816062CE0114
:101850000E94D7068FE396E00197F1F700000000A1
:101860006C816062CE010E94D706C7CFFF920F93B2
:101870001F93CF93DF93EC01162F042FF22E8B854D
:10188000888B61E00E94BE011092D0038093D10347
:1018900091E0811101C090E0998B85EE95E00E9466
:1018A0008E068E878989882339F01F861C8260E026
:1018B000CE010E960E94970A2F2D402F612FCE0148
:1018C000DF91CF911F910F91FF900C94AD0BEF9290
:1018D000FF920F931F93CF93DF937B01482F60E01C
:1018E0008DE495E00E94DF06E70109900020E9F70A
:1018F0002197CE19C13108F0C0E1DE2D8701802F7C
:101900008D1B8C1740F4F80161918F018DE495E0F7
:101910000E94BA06F4CFC03139F060E28DE495E060
:101920000E94BA06CF5FF7CFDF91CF911F910F9141
:10193000FF90EF900895CF93DF93EC0140E150E0EA
:1019400087E695E00E94A0301092770567E675E083
:10195000CE01DF91CF910C94670CCF93DF93EB0115
:10196000BC0190E080E00E949B0CBE0181E090E011
:10197000DF91CF910C949B0CBC0185EF91E00E940C
:10198000AD0C6CED75E080E090E00C94530590E0B8
:1019900080E00E94FC0163E072E081E090E00E9440
:1019A0009B0C8091220686FF06C068EB7BE080E0FE
:1019B00090E00E94370688E19EE00FB6F894A89563
:1019C000809360000FBE909360006CED75E080E046
:1019D00090E00C945305DC011496EC911497159645
:1019E0002C91E21740F4F0E0EE0FFF1FE05AFE4F9B
:1019F000808191810895FC0114820E94C70C88EDBA
:101A000095E00895FC0184818F5F84839581981708
:101A100008F41482E48168E770E0E91750F4F0E01C
:101A2000EE0FFF1FE05AFE4F0190F081E02D628122
:101A3000738181E090E00C949B0CFC011482628124
:101A4000738190E080E00E949B0C6091D3057091BF
:101A5000D40581E090E00C949B0CCF93DF93DC01E4
:101A600014968C9114978F5F14968C9314971596F7
:101A70009C911597981718F414961C921497169623
:101A80008C9116971496EC911497882381F0CE2FA1
:101A9000D0E0CC0FDD1FC059DE4F288139812B5893
:101AA000354029F4EF5F1496EC931497EBCF68E779
:101AB00070E0E91750F4F0E0EE0FFF1FE059FE4F21
:101AC0000190F081E02D6281738181E090E0DF91EF
:101AD000CF910C949B0CCF93DF93EC011C829E81E1
:101AE000992379F08C81E82FF0E0EE0FFF1FE05989
:101AF000FE4F208131812B58354019F48F5F8C8344
:101B0000EFCF6A817B8190E080E00E949B0CEC81AA
:101B1000F0E0EE0FFF1FE059FE4F0190F081E02D45
:101B20006281738181E090E0DF91CF910C949B0CF6
:101B3000FC01148264EE72E090E080E00E949B0C55
:101B40006CE272E081E090E00C94670CFC0114827E
:101B50006AE870E090E080E00E949B0C63E372E032
:101B600081E090E00C94670CFC0114826DE770E05A
:101B700090E080E00E949B0C63E372E081E090E0E3
:101B80000C94670CFB0101900020E9F73197AF013D
:101B9000461B570BDC01ED91FC910280F381E02D97
:101BA00009948F929F92AF92BF92EF92FF920F9300
:101BB0001F93CF93DF93CDB7DEB7A1970FB6F894FD
:101BC000DEBF0FBECDBF7C01FA01CB0119A22230CE
:101BD00008F42AE08E010F5D1F4F822E912CB12C4C
:101BE000A12CBF01A50194010E941431F901CA0181
:101BF0006A300CF5605DD8016E938D01232B242B88
:101C0000252B79F790E080E0109721F0BD01C70106
:101C10000E94C20DA1960FB6F894DEBF0FBECDBFD5
:101C2000DF91CF911F910F91FF90EF90BF90AF90F8
:101C30009F908F900895695CDECFCF92DF92EF92F4
:101C4000FF920F931F93CF93DF93EC016A017B0107
:101C5000E881F9810190F081E02D6DE209958C0118
:101C600044275527BA014C195D096E097F092AE0FE
:101C7000CE010E94D10D800F911FDF91CF911F9156
:101C80000F91FF90EF90DF90CF900895611571054F
:101C900011F00C94C20D90E080E00895CF93DF9393
:101CA000EA01462F682F8DE495E00E94DF06BE0111
:101CB0008DE495E0DF91CF910C94460ECF93DF93A6
:101CC000EC018C818F5F833098F48C830E94240711
:101CD000EC81F0E0EE0FFF1FE45FFE4F4081518189
:101CE00061E070E090E080E0DF91CF910C944E0EC7
:101CF0001C82ECCFCF93DF93EC018C818F5F82301D
:101D000098F48C830E942407EC81F0E0EE0FFF1F13
:101D1000EE5EFE4F4081518161E070E090E080E036
:101D2000DF91CF910C944E0E1C82ECCFCF93DF93BA
:101D3000EC018C818F5F823098F48C830E942407A1
:101D4000EC81F0E0EE0FFF1FEE5EFE4F408151810F
:101D500061E070E090E080E0DF91CF910C944E0E56
:101D60001C82ECCF40E150E0BC0187E695E00E9488
:101D7000A0301092770567E675E08DE495E00C944D
:101D8000460ECF93DF93EC018C818F5F823008F594
:101D90008C830E942407EC8181E09091430591118E
:101DA00080E0E81318C047E352E061E070E090E0A3
:101DB00080E00E944E0EEC81F0E0EE0FFF1FEE5E21
:101DC000FE4F608171818DE495E0DF91CF910C949D
:101DD000460E1C82DECFF0E0EE0FFF1FEE5EFE4FE0
:101DE0004081518161E070E090E080E0DF91CF912F
:101DF0000C944E0ECF93DF93EC0181E0909143055C
:101E0000911180E08C8364EE72E090E080E00E94AB
:101E10009B0C0E94240747E352E061E070E090E0F1
:101E200080E00E944E0EEC81F0E0EE0FFF1FEE5EB0
:101E3000FE4F608171818DE495E0DF91CF910C942C
:101E4000460ECF93DF93EC0147E352E061E070E090
:101E500090E080E00E944E0EEC81F0E0EE0FFF1F5C
:101E6000EE5EFE4F608171818DE495E00E94460E2A
:101E700064EF71E080E090E00E9453058C8188233C
:101E800029F088ED95E0DF91CF91089582EC95E0FF
:101E9000FACFCF93DF93EC0147E352E061E070E0CB
:101EA00090E080E00E944E0EEC81F0E0EE0FFF1F0C
:101EB000EE5EFE4F608171818DE495E00E94460EDA
:101EC00064EF71E080E090E00E9453058C81811105
:101ED00002C00E94C70C90E080E0DF91CF9108958E
:101EE0006115710521F08FE594E00C94C20D90E02E
:101EF00080E00895CF93DF93E2EDF3E080E0EF011F
:101F00009191992311F08927FACF1F928F9389E33A
:101F100092E09F938F93DF93CF930E9493318DE054
:101F20008B831C820F900F900F900F900F900F904B
:101F3000DF91CF910895EF92FF921F93CF93DF939C
:101F40009091C603C2E0911117C0C0912406109170
:101F50002806D0913206209122063091230679017D
:101F60009AE1E92291E2F922811128C0CC2379F08B
:101F7000C13049F430FF0FC08C2FDF91CF911F91FA
:101F8000FF90EF900895C23021F430FD04C0C1E00D
:101F9000F3CFC330D1F38091C503C8130FC0809134
:101FA000C40318130BC08091C303D81307C08091DA
:101FB000C1039091C203E816F90649F33F932F93AA
:101FC0001F92DF931F921F931F92CF931F9284E261
:101FD0008F938FE392E09F938F9382ED93E09F9393
:101FE0008F930E9493310E947A0F62ED73E08CEF21
:101FF00094E00E94700FC093C5031093C403D09364
:10200000C303F092C203E092C1038DB79EB70E9650
:102010000FB6F8949EBF0FBE8DBFC0E0ADCFCF937B
:10202000DF93EC018091200680FF41C086E08D8324
:10203000809131068E8389E592E09F938F938CE5A2
:1020400092E09F938F9382ED93E09F938F930E94F2
:10205000933162ED73E090E080E00E94670C909114
:1020600032069C838D810F900F900F900F900F90F0
:102070000F90981708F48C838C811F928F938BE6B6
:1020800092E09F938F9382ED93E09F938F930E94B2
:1020900093310F900F900F900F900F900F9062ED73
:1020A00073E081E090E0DF91CF910C94670C86E0C3
:1020B0008D8388E18E8386E592E0BFCF7F928F92F9
:1020C0009F92AF92BF92CF92DF92EF92FF920F93C7
:1020D0001F93CF93DF9300D000D000D0CDB7DEB7F1
:1020E000082F109124068091660586FF05C08CEFAD
:1020F000810F8B3008F02EC38091200672E0B72E3E
:1021000080FD02C0BB24B394A09032060E948605D5
:102110006B017C019091240680912506981302C0E2
:102120000023E9F128EEC20E23E0D21EE11CF11CCF
:102130008091220681FD02E01F92AF921F92BF9212
:1021400080E291E09F938F9382ED93E09F938F9332
:102150000E9493310FB6F894DEBF0FBECDBF17308B
:1021600009F4A1C108F02EC1133009F47AC108F0B6
:1021700018C1113009F444C1123009F45AC18091D8
:10218000360580FD02C083FF0AC08091220681FDD2
:1021900006C061E172E090E080E00E949B0C8091BB
:1021A000780590917905A0917A05B0917B05A701FA
:1021B0009601281B390B4A0B5B0BDA01C901883EDB
:1021C0009340A105B10518F4013009F0C3C2C092D3
:1021D0007805D0927905E0927A05F0927B0580919E
:1021E000220681FD05C08AEF810F823008F491C17B
:1021F0000E942909052F762E7E83133009F0FBC13A
:10220000C0903B06D0903C06E0903D06F0903E0624
:102210008090430690904406A0904506B0904606F4
:102220008091360580FFE1C10E94240720913D0581
:1022300030913E05211556EF350751F1C9016AE08D
:1022400070E00E94003197FF03C09195819591093C
:102250009F938F93C9016AE070E00E9400317F93E1
:102260006F9380E792E09F938F9382ED93E09F932B
:102270008F930E94933142ED53E061E070E090E073
:1022800080E00E944E0E0FB6F894DEBF0FBECDBFA9
:1022900020913F0530914005211596EF390751F106
:1022A000C9016AE070E00E94003197FF03C0919578
:1022B000819591099F938F93C9016AE070E00E9414
:1022C00000317F936F9380E792E09F938F9382ED2D
:1022D00093E09F938F930E94933142ED53E061E02E
:1022E00070E085E090E00E944E0E0FB6F894DEBFDD
:1022F0000FBECDBF80913605282F30E0A90155953E
:1023000047955595479540FF72C1359527958B7F29
:1023100020FD6EC18091360580FD1CC2C80CD91C01
:10232000EA1CFB1C9CE3892E912CA12CB12CC7012B
:10233000B601A50194010E9414317F936F93C701E8
:10234000B60120E13EE040E050E00E941431122F3F
:10235000F32EA50194010E9414313F932F93FF9215
:102360001F9389E792E09F938F9382ED93E09F9371
:102370008F930E94933180E28093DA038093DB0392
:102380008093DC031F927F921F920F938EE792E05F
:102390009F938F938DED93E09F938F930E94933142
:1023A000FDC0153009F477C068E972E0163008F412
:1023B00074C060E772E0023001F190E080E00E94BA
:1023C0009B0CDDCE1A3009F46BC068F4183009F4A8
:1023D0007DC064E272E089E292E0193009F0CFCE6C
:1023E0000E94AD0CCCCE1E3F09F486C008F077C029
:1023F0006EE372E01E3009F0C2CE8BE792E0F0CFC0
:102400008DE495E00E948E0B40E060E08DE495E065
:102410000E94DF060E94C50684EC92E00E94B20E84
:1024200042ED53E070E060E08AE090E00E944E0EE2
:10243000A6CE8DE495E00E948E0B40E060E08DE436
:1024400095E00E94DF0680914F06882329F065E021
:102450008DE495E00E94BA060E94C5068AEB92E0E0
:10246000DDCF8DE495E00E948E0B40E060E08DE4CE
:1024700095E00E94DF0680914F06882329F065E0F1
:102480008DE495E00E94BA060E94C50681EB92E0B9
:102490000E94B20E74CE6CE872E086EA92E0A0CFA1
:1024A0006FE572E0AACF023071F48091200690911E
:1024B000210694FF05C08BE792E065E572E090CFBE
:1024C00086EA92E0FACF65E572E077CF8BE792E09B
:1024D000023011F086EA92E069E472E081CF8DE487
:1024E00095E00E948E0B40E060E08DE495E00E9454
:1024F000DF0685E392E092CF8DE495E00E948E0B9B
:1025000040E060E08DE495E00E94DF068BE192E020
:1025100085CF66E171E082ED93E00E948C3180917D
:102520002406863009F058C0C090FC05D090FD0507
:10253000E090FE05F090FF050E94860540EEC40E77
:1025400043E9D41E44E0E41EF11CA7019601261BBA
:10255000370B480B590BCA01B90128EE33E040E0B4
:1025600050E00E941431C90137FDF4C06CE370E003
:102570000E9400319F938F937F936F938EE792E039
:102580009F938F938EEE93E09F938F930E9493314E
:102590006EEE73E082ED93E00E9481310FB6F89405
:1025A000DEBF0FBECDBF62ED73E081E090E0269606
:1025B0000FB6F894DEBF0FBECDBFDF91CF911F9154
:1025C0000F91FF90EF90DF90CF90BF90AF909F90D2
:1025D0008F907F900C94670CC0901306D0901406D7
:1025E000E0901506F0901606A7CF82FD97CE846086
:1025F000809336058FCE1E3F09F0ACC040E060E00E
:102600008DE495E00E94DF060E94C5068BE192E012
:102610000E94B20E8E811F928F931F927F921F9203
:102620000F9389E792E09F938F9302ED13E01F933E
:102630000F930E949331A80161E070E090E080E088
:102640000E944E0E0FB6F894DEBF0FBECDBF809134
:102650004305882309F466C040E069E08DE495E015
:102660000E94DF0662E08DE495E00E94BA0666E013
:102670008DE495E00E94BA06809145051F928F93E4
:10268000809144051F928F938EE7E82E82E0F82E0A
:10269000FF92EF921F930F930E949331A80170E075
:1026A00060E08BE090E00E944E0E41E069E08DE436
:1026B00095E00E94DF0661E08DE495E00E94BA0695
:1026C00066E08DE495E00E94BA06809147051F926E
:1026D0008F93809146051F928F93FF92EF921F93E5
:1026E0000F930E9493310FB6F894DEBF0FBECDBF9B
:1026F000A80161E070E08BE090E026960FB6F894B8
:10270000DEBF0FBECDBFDF91CF911F910F91FF9024
:10271000EF90DF90CF90BF90AF909F908F907F9081
:102720000C944E0E1F92AF921F92BF9280E291E0E6
:102730009F938F931F930F930E9493310FB6F8943A
:10274000DEBF0FBECDBF42ED53E070E060E08AE037
:1027500090E0D3CF26960FB6F894DEBF0FBECDBF64
:10276000DF91CF911F910F91FF90EF90DF90CF906D
:10277000BF90AF909F908F907F9008958091240696
:102780008E3FB9F090E080E00E94FC018EEF8093D4
:1027900024060E948605609337067093380680935E
:1027A000390690933A0681E00E945E1080E00C9416
:1027B0009B0F0895CF93C82F80913605877F809314
:1027C00036058091880590918905009759F0DC01C4
:1027D000ED91FC910280F381E02D0995C0E08C2FF2
:1027E000CF910895C111FBCF809124068E3FB0F0A8
:1027F0000E94AB0280914305882389F30E94D70988
:10280000909124069E3F69F4882369F080914305E6
:10281000882329F381E080934805E1CF0E94BE130D
:10282000E9CF882399F310924805D9CF81115BC075
:102830008BE892E09F938F931F9284E28F938EE8B0
:1028400092E09F938F9382ED93E09F938F930E94EA
:1028500093318DB79EB708960FB6F8949EBF0FBE02
:102860008DBF80911E05882361F060E573E082EDE5
:1028700093E00E9481316EEF74E082ED93E00E945C
:102880008131209135052223E9F082ED93E0FC01AE
:1028900001900020E9F7CF011F922F931F922AE3A6
:1028A0002F9323E932E03F932F9301979F938F93C8
:1028B0000E9493318DB79EB708960FB6F8949EBFCD
:1028C0000FBE8DBF0E947A0F62ED73E08CEF94E033
:1028D0000E94700F80913405882341F06AE08CEFEC
:1028E00094E00C94E80588E892E0A4CF0895CF9393
:1028F000DF93FC01C481FFE0CF9FE001112410921F
:10290000D203662331F067E372E082ED93E00E9428
:102910008C316BE972E0209781F0CC33D105CCF497
:10292000BE0190E080E040E00E940D06BC0182ED17
:1029300093E00E9481316FE972E082ED93E00E94A2
:10294000813162ED73E081E090E0DF91CF910C94F2
:10295000670CCE016CE370E00E94EC30EC0190E07B
:1029600080E040E00E940D06BC0182ED93E00E94F1
:102970008131CD2B31F064EA72E082ED93E00E9468
:10298000813167EA72E0D9CFCF93DF93EC0161E048
:102990000E9477148C810E94F70264EF71E080E05E
:1029A00090E00E9453058C81882329F090E080E01C
:1029B000DF91CF9108958EED95E0FACFFC019481DF
:1029C000943078F49F5F94838481813208F014827C
:1029D00061E0948180914F06981360E0CF010C94E0
:1029E00077149C3010F49E5FEECF9C5FECCFCF93BA
:1029F000DF93EC0180914F068C8369ED72E090E0EB
:102A000080E00E949B0C61E0CE01DF91CF910C949D
:102A100077141F93CF93DF93D82FC62F142F1092C4
:102A2000D203411106C067E372E082ED93E00E9499
:102A300081316D2F70E090E080E042E00E940D0651
:102A4000BC0182ED93E00E9481316BEA72E082ED7D
:102A500093E00E948131113031F467E372E082ED3E
:102A600093E00E9481316C2F70E090E080E042E0C2
:102A70000E940D06BC0182ED93E00E94813162ED5F
:102A800073E081E090E0DF91CF911F910C94670C8F
:102A9000FC0184818F5F8C3338F4848341E064814E
:102AA0008091BF030C9409151482F8CFCF93DF9364
:102AB000EC0163ED70E090E080E00E949B0C60917F
:102AC000C0036C8341E08091BF03DF91CF910C94F0
:102AD0000915FC0184818F5F8C3338F4848341E0D5
:102AE00064818091BF030C9409151482F8CFCF93B1
:102AF000DF93EC0169EC70E090E080E00E949B0CB9
:102B00006091C0036C8341E08091BF03DF91CF915E
:102B10000C940915FC0184818093BF0340E060910F
:102B2000C0030E94091564EF71E080E090E00E940C
:102B3000530580E995E00895FC0184818F5F883119
:102B400038F4848340E06091C00384810C940915BB
:102B50001482F8CFCF93DF93EC016FEB70E090E03D
:102B600080E00E949B0CE3E4F5E083818093BF0347
:102B700064816093C0038C8340E0DF91CF910C941B
:102B80000915FC0184818093BF0340E06091C0037C
:102B90000E94091564EF71E080E090E00E94530507
:102BA00085E995E00895FC0184818F5F883138F4D0
:102BB000848340E06091C00384810C9409151482E1
:102BC000F8CFCF93DF93EC0164EB70E090E080E00E
:102BD0000E949B0CE3E4F5E081818093BF03628156
:102BE0006093C0038C8340E0DF91CF910C94091572
:102BF000CF92DF92EF92FF920F931F93CF93DF93C9
:102C00006C01F62E142FD22FCE2D1092D203E1108C
:102C100006C067E372E082ED93E00E9481316F2D80
:102C200070E090E080E042E00E940D06BC0182ED81
:102C300093E00E9481316DEA72E082ED93E00E94A0
:102C40008131C13031F467E372E082ED93E00E949C
:102C50008131612F70E090E080E042E00E940D063B
:102C6000BC0182ED93E00E9481316DEA72E082ED59
:102C700093E00E948131C23031F467E372E082ED6B
:102C800093E00E948131B60190E080E042E00E9432
:102C90000D06BC0182ED93E00E94813160E573E096
:102CA00082ED93E00E948131C33031F467E372E03A
:102CB00082ED93E00E9481316D2F70E090E080E022
:102CC00042E00E940D06BC0182ED93E00E9481313A
:102CD0006BEA72E082ED93E00E948131C43031F4FE
:102CE00067E372E082ED93E00E948131602F70E033
:102CF00090E080E042E00E940D06BC0182ED93E08E
:102D00000E94813162ED73E081E090E0DF91CF912C
:102D10001F910F91FF90EF90DF90CF900C94670C74
:102D2000EF920F93CF93DF9300D000D000D0CDB7B8
:102D3000DEB7FC0104810093C00384E0E82E2091FB
:102D4000BF034091BE036091BD038091BB0390918E
:102D5000BC030E94F8152091C0033091BF0340913D
:102D6000BE035091BD038091BB039091BC03803D95
:102D7000F7E09F0710F0805D974089835A834B836B
:102D80003C832D831E82CE0101960E94200A64EFAF
:102D900071E080E090E00E94530588ED95E0269672
:102DA0000FB6F894DEBF0FBECDBFDF91CF910F916C
:102DB000EF900895EF920F93CF93DF93EC018C8106
:102DC0008F5F8C33B8F48C830E94240784E0E82E54
:102DD0000C812091BF034091BE036091BD0380919F
:102DE000BB039091BC030E94F815DF91CF910F9126
:102DF000EF9008951C82E8CFEF920F93CF93DF936B
:102E0000EC016DEA70E090E080E00E949B0C009184
:102E1000C0030C8384E0E82E2091BF034091BE03E1
:102E20006091BD038091BB039091BC030E94F81593
:102E3000DF91CF910F91EF900895EF920F93FC01E6
:102E400024812093BF0383E0E82E0091C0034091CA
:102E5000BE036091BD038091BB039091BC030E94AF
:102E6000F81564EF71E080E090E00E9453058EEA6F
:102E700095E00F91EF900895EF920F93CF93DF932A
:102E8000EC018C818F5F8831B8F48C830E94240719
:102E900083E0E82E0091C0032C814091BE03609135
:102EA000BD038091BB039091BC030E94F815DF9194
:102EB000CF910F91EF9008951C82E8CFEF920F937E
:102EC000CF93DF93EC0168EA70E090E080E00E942D
:102ED0009B0C2091BF032C8383E0E82E0091C0035C
:102EE0004091BE036091BD038091BB039091BC03F0
:102EF0000E94F815DF91CF910F91EF900895EF9216
:102F00000F93FC01848190E09093BC038093BB03FA
:102F100022E0E22E0091C0032091BF034091BE0346
:102F20006091BD030E94F81564EF71E080E090E0CD
:102F30000E94530583EB95E00F91EF900895EF9277
:102F40000F93FC0184818F5F823290F484838481AB
:102F500092E0E92E0091C0032091BF034091BE038F
:102F60006091BD0390E00E94F8150F91EF900895D5
:102F700087E1ECCFEF920F93CF93DF93EC0163EAFD
:102F800070E090E080E00E949B0C8091BB0399EE82
:102F9000980F9B30A0F48C838C8192E0E92E0091F5
:102FA000C0032091BF034091BE036091BD0390E038
:102FB0000E94F815DF91CF910F91EF90089587E16E
:102FC0008C8387E190E09093BC038093BB03E4CFB4
:102FD000EF920F93FC0144814093BE03EE24E394EF
:102FE0000091C0032091BF036091BD038091BB039A
:102FF0009091BC030E94F81564EF71E080E090E0CE
:103000000E94530588EB95E00F91EF900895EF92A1
:103010000F93CF93DF93EC018C818F5F8032B8F4F4
:103020008C830E942407EE24E3940091C003209136
:10303000BF034C816091BD038091BB039091BC03A1
:103040000E94F815DF91CF910F91EF90089581E0E4
:10305000E7CFEF920F93CF93DF93EC016FE970E02E
:1030600090E080E00E949B0C4091BE034C83EE24D4
:10307000E3940091C0032091BF036091BD03809150
:10308000BB039091BC030E94F815DF91CF910F9183
:10309000EF900895EF920F93FC0164816093BD035C
:1030A000E12C0091C0032091BF034091BE038091A9
:1030B000BB039091BC030E94F81564EF71E080E0BF
:1030C00090E00E9453058DEB95E00F91EF900895ED
:1030D000EF920F93CF93DF93EC018C818F5F8D3054
:1030E000B0F48C830E942407E12C0091C00320914E
:1030F000BF034091BE036C818091BB039091BC03E0
:103100000E94F815DF91CF910F91EF90089581E023
:10311000E8CFEF920F931F93CF93DF9300D000D0AF
:1031200000D0CDB7DEB78C0169E970E090E080E0B7
:103130000E949B0C0E942909822F252F3093BD03EA
:103140004093BE0390E09093BC038093BB035093E5
:10315000BF036093C003F8013483E12C062F632F73
:103160000E94F81526960FB6F894DEBF0FBECDBFAD
:10317000DF91CF911F910F91EF900895CF93DF933F
:10318000482F50E070E060E02AE08FE594E00E9474
:10319000D10DEC016FEA72E08FE594E00E94C20D60
:1031A0008C0F9D1FDF91CF910895CF93DF93AC01DA
:1031B000990F660B770B2AE08FE594E00E94D10D02
:1031C000EC016FEA72E08FE594E00E94C20D8C0F73
:1031D0009D1FDF91CF910895AB01770F660B770BA1
:1031E0002AE00C94D10DCF93DF93EC018C818F5F9B
:1031F0008C839E81981710F48D818C830E94240704
:1032000041E060E08DE495E00E94DF069C818091C2
:103210003206981306C067E372E08DE495E00E94E1
:10322000460E6C8170E08DE495E00E94EC186EE62D
:1032300072E08DE495E0DF91CF910C94460ECF9330
:1032400080912006C1E080FDC2E081E090E0C130C5
:1032500011F490E080E00E94AF30982F8FEF890F3B
:103260008E3F28F098E1C13069F48CE009C086E017
:10327000963030F0C13031F4892F993108F088E16F
:10328000CF910895809131069817D0F7892FF8CF04
:10329000CF93DF93C3E4D5E081E0888361E084E0ED
:1032A00090E00E94BD301D82E1EFF5E081A992A976
:1032B000906192AB81AB81E0DF91CF910C945E1075
:1032C000CF93DF93C3E4D5E0188260E084E090E020
:1032D0000E94BD301D82E1EFF5E081A992A99F7E99
:1032E00092AB81AB81E0DF91CF910C945E10CF93D4
:1032F000DF93EC0147E352E061E070E090E080E0B2
:103300000E944E0EEC81F0E0EE0FFF1FEE5EFE4FCE
:10331000608171818DE495E00E94460E64EF71E05A
:1033200080E090E00E9453058C81811107C00E94CB
:1033300048198EED95E0DF91CF9108950E946019B4
:10334000F8CFEF92FF920F931F93CF93DF93C82F85
:10335000062F142F80912006909121067C0121E0F8
:10336000E222FF2480FF35C08091310611110E94B6
:103370001F19C63080F18C17A0F1C0933206D0E03F
:10338000C0E011110EC06091320621E0EF2809F073
:1033900022E081E090E0213011F490E080E00E9492
:1033A000BD308091F1059091F205019729F480914B
:1033B000320690E00E94C302002319F081E00E94CF
:1033C0005E10CE01DF91CF911F910F91FF90EF9092
:1033D000089588E1CBCF86E080933206C1E0D0E04B
:1033E000D0CF80933206C2E0D0E0CBCFCF93DF9333
:1033F000FC0164816093C00341E08091BF030E949F
:1034000009158091C0036091BF03C3E4D5E06B83CD
:103410008C8387E090E00E94BD306C8188E090E072
:103420000E94BD3064EF71E080E090E00E9453059F
:103430008EED95E0DF91CF910895CF93DF93FC015E
:1034400064816093C00341E08091BF030E9409152D
:103450008091C0036091BF03C3E4D5E069838A8390
:1034600085E090E00E94BD306A8186E090E00E9495
:10347000BD3064EF71E080E090E00E9453058EED76
:1034800095E0DF91CF910895CF93DF93EC0147E36F
:1034900052E061E070E090E080E00E944E0E6C81AE
:1034A00070E08DE495E00E94EC186EE672E08DE429
:1034B00095E00E94460E64EF71E080E090E00E948B
:1034C00053056C818091200621E080FD22E081E09F
:1034D00090E0213011F490E080E00E94BD3040E0A7
:1034E00060E08C810E94A11988ED95E0DF91CF9179
:1034F0000895CF93DF93809124061F928F931F929C
:1035000084E28F9382EB92E09F938F93C2EDD3E09E
:10351000DF93CF930E94933109900020E9F76FE980
:1035200071E0CE0101970E9499300E947A0F8DB709
:103530009EB708960FB6F8949EBF0FBE8DBF62ED82
:1035400073E08CEF94E0DF91CF910C94700FCF93E8
:10355000DF93C82F48E050E082ED93E00E94853071
:1035600088E0C89FB001112460648DE495E00E945A
:10357000D7068FE391E00197F1F700000000C2ED5C
:10358000D3E069918DE495E00E94BA068AEA91E061
:103590000197F1F7000093E0CA3DD90791F7DF9159
:1035A000CF9108950E947C31BC0182E090E00C94A0
:1035B000CB30CF93DF93C82FD62F809120069091E8
:1035C0002106880F892F881F990B919580FF0AC0CB
:1035D0006DEB72E08FE594E00E94460E8C2F90E038
:1035E0000E94D5188091200690912106C23021F5C5
:1035F0008160909321068093200680E899EAA3E0F9
:10360000B0E08093540690935506A0935606B0936D
:10361000570680912006909121060E94D41A0E949C
:103620001F1941E060E00E94A119DD2379F081E0DB
:10363000DF91CF910C945E108E7F90932106809342
:10364000200680EC94EDA1E0B0E0DBCFDF91CF91DC
:1036500008952F923F927F928F929F92AF92BF9246
:10366000CF92DF92EF92FF920F931F93CF93DF934E
:10367000CDB7DEB72A970FB6F894DEBF0FBECDBF29
:103680008FE594E00E9491037C01892B09F457C5D2
:10369000D12CC12C0EEF14E033EF232E32E0332E69
:1036A000CE14DF040CF04BC58FE594E00E946F034D
:1036B000A82E80913405882329F06A2D8CEF94E0A0
:1036C0000E94E80524E2A21209C0A092FE0481E053
:1036D00080931E055FEFC51AD50AE2CF9091FE04D4
:1036E0009432C1F7E0911E05E0320CF023C581E071
:1036F0008E0F0E2E000CFF0BE450FB4F3DE080932D
:103700001E05A31215C512824FEF54E050932005F9
:1037100040931F0581E0809333058091FF0424E2EC
:10372000A22EA80EB82EB926E0E0F5E0DF019191B7
:103730009923B1F1903229F5809133058A3064F0F4
:10374000109233051092FE0410921E05109235055A
:1037500080E00E941614BECF50E2A50EB926DF010C
:1037600011971C92A091330581E08A0F8093330555
:10377000AA0FBB0BA450BB4F9496FC93EE93939768
:10378000D5CF9A32D9F19E35E1F582E0982E1C9280
:10379000CF010E94B80591E0991236C0A812D0CF8F
:1037A00081E08093C60310923505B09033058B15E8
:1037B0009CF4EB2DEE0FFF0BE650FB4F83A194A181
:1037C000DC012C912A3341F401960E94B8058093C4
:1037D0003505BA94B092330510921E05E0911F058D
:1037E000F09120058081873409F40AC384F486347B
:1037F00009F451C0AA24AA94BA2C79C299249394AA
:10380000C6CFA90EB92692CFB8129ACFC9CF8335A9
:1038100009F488C18A3571F78181803359F7809125
:103820003305833009F0A2C68091210590912205CD
:103830000E949805A62E80912305909124050E9450
:103840009805B62EA0921E0660931F061F926F93D6
:103850001F92AF928FEF92E09F938F9382ED93E050
:103860009F938F930E94933162ED73E08FE594E014
:103870000E94C20D6FEA72E08FE594E00E94C20DD3
:103880006A2D85E290E00E94BD306B2D86E290E0CB
:103890000E94BD30D0C38181853409F4A1C00CF0F1
:1038A00043C0813309F486C0FCF4803309F0A2CF11
:1038B00080913305823009F09DCFE0912105F09190
:1038C0002205809166059081903309F471C08F7B49
:1038D000809366058081803309F448C681E00E94A8
:1038E0005E10B12CA12C03C2823409F46DC0843463
:1038F00009F080CF809124068F3F09F437C682E01B
:1039000090E00E94FC018FEF809324060E944D07F7
:103910008091230687FF0E94970781E00E945E1036
:1039200080E00E949B0FDDCF803509F4C4C00CF00D
:1039300036C0863409F05ECF80913305833009F0BC
:1039400059CFE0912305F091240580818053823086
:1039500008F050CFE0912105F0912205E081E2547A
:10396000E53108F047CF0E2E000CFF0BE654F34E66
:103970000C945531F31CFA1B071D1B1D1F1D291D1F
:10398000FA1BFA1BFA1BFA1BFA1BFA1BFA1BFA1B8F
:10399000FA1BFA1B3D1DFA1B471DFA1B511D8235F0
:1039A00009F4BDC0833509F025CF0E94BE1399CF1D
:1039B00080648ECF90912406945081E09B3008F073
:1039C00080E00E94DA138ACF80913305823009F0BB
:1039D00011CF80912105909122050E94980581CFF9
:1039E0000E94AB027ECF20912006309121068111EA
:1039F0000CC0306830932106209320068091200669
:103A0000909121060E94D41A6CCF3F77F3CF20917A
:103A1000200630912106882361F02D7F3093210606
:103A20002093200680912006909121060E94D41AAE
:103A300058CF2260F3CF81E08093340552CF20919C
:103A4000200630912106882311F03D7FE7CF3260B8
:103A5000E5CF2091200630912106882311F0277FA1
:103A6000DDCF1092170610921306109214061092D2
:103A70001506109216062860D1CF209120063091AD
:103A80002106882311F02F7EC9CF2061C7CF209156
:103A9000200630912106882311F03B7FBFCF346090
:103AA000BDCF2091200630912106882311F02B7F75
:103AB000B5CF2460B3CF8091330584300CF49ACE17
:103AC0008091220681FD96CE80912105909122055C
:103AD0000E9498054B0180912305909124050E9436
:103AE0009805A7E2B5E024E030E0F0E27F2EA901DE
:103AF0002F5F3F4FE09133050E2E000CFF0B4E174A
:103B00005F072CF4ED91FD9131977082F0CF4091D9
:103B1000250550912605C4010E944E0EE2CE0E945A
:103B2000C70CDFCE8181853309F49CC0FCF481335E
:103B300009F45FC0833309F05DCE80913305823094
:103B400009F058CE809124068250823008F052CE7F
:103B500080912105909122050E949805862F0E9450
:103B6000F7028091660586FDBCCEB8CE8C3409F490
:103B7000E6C0843509F4F7C0833409F03BCEA09049
:103B800033058EEF8A0D823008F034CE8091210506
:103B9000909122050E949805B62EB3E040E0AB124A
:103BA000BAC0E0912305F0912405808141E08D3475
:103BB00009F0B1C08AEF8B0D8B3408F080C08FEF15
:103BC00091E00E94AF3081508E3F08F478C06B2D99
:103BD0008FEF91E00E94BD30B092310680913206A5
:103BE000B81628F441E061E08B2D0E94A11980E015
:103BF00067C080913305873009F0FCCD80912B059B
:103C000090912C050E949805B62E809129059091DF
:103C10002A050E949805A62E8091270590912805D7
:103C20000E949805962E80912505909126050E9468
:103C30009805862E80912305909124050E94980571
:103C4000762E80912105909122050E949805698326
:103C50007A828B829C82AD82BE82CE0101960E94C6
:103C6000200A3FCE80913305823009F0C3CDE09128
:103C70002105F091220580818133A1F034F4803355
:103C800071F0AA24A394B12C32C0813471F08D3428
:103C9000C1F7809122069091230690680BC00E9484
:103CA00097071FCE0E94B4071CCE809122069091E8
:103CB00023069F77909323068093220612CE81E0FD
:103CC000A82EB12C809131061F928F938CEF92E039
:103CD0009F938F931F930F930E9493310F900F9098
:103CE0000F900F900F900F9081E080931E058091B0
:103CF0001E058F3F31F081E0AB2809F080E00E9483
:103D000016141092FE0410921E051092C60380E055
:103D10000E949B0FDFCC8091360580FF04C080910C
:103D200032068B1540F061E08B2D0E94A1195C01D9
:103D300080913206C9CFAA24A394B12CF9CF8091E7
:103D40003305823009F056CDE0912105F09122052E
:103D500080819FEC980F923008F04CCD61E0805349
:103D60000E94D91ABECD80913305853009F042CD2D
:103D700080912105909122050E949805A62E8091A0
:103D80002305909124050E949805862E8091250593
:103D9000909126050E949805B62E80912705909156
:103DA00028050E949805962EA11009C0811007C011
:103DB000B11005C0611103C00E94601992CDA0929C
:103DC0004405809245056A2D85E090E00E94BD3053
:103DD0006091450586E090E00E94BD30B0924605B6
:103DE000909247056B2D87E090E00E94BD30609176
:103DF000470588E090E00E94BD300E94481971CDCF
:103E00008181853409F425C174F5853309F4D9C05D
:103E10005CF4803309F4B3C0833309F0EBCC8091B8
:103E20004F061F928F93B9C0833409F4E4C08434E1
:103E300009F0E0CC80914305882309F402C1409148
:103E400044058091450590E02091460530E0609161
:103E5000470570E07F936F933F932F939F938F93CA
:103E60001F924F93DFC0803509F418C10CF04FC08A
:103E7000863409F4FBC0893409F0BCCCDE0111960C
:103E8000EEE0F0E091E29093570084918D933196AB
:103E9000E831F105C1F780E28093FE0489818093C7
:103EA000FF048A81809300058B81809301058C81BA
:103EB000809302058D81809303058E818093040594
:103EC0004E01F7E08F0E911CB12CA12CD4018D91E5
:103ED0004D011F928F93EAE3F2E0FF93EF93C50148
:103EE0008B5F9A4F9F938F930E94933132E0A30E82
:103EF000B11C0F900F900F900F900F900F9048E013
:103F0000A416B10419F781E080931E05EACC84352C
:103F100009F4D9C0863509F4F8C0833509F06ACCB4
:103F2000809123068F93809122068F93809128069B
:103F30001F928F9380913B0690913C06A0913D0685
:103F4000B0913E064091430650914406609145066B
:103F500070914606840F951FA61FB71FBF93AF939E
:103F60009F938F93809124061F928F932AED32E0C6
:103F70003F932F931F930F930E94933159C08091C9
:103F8000F1059091F2050297D1F00E94880291E02C
:103F9000811101C090E01F929F938CEF92E09F935C
:103FA0008F931F930F930E94933181E080931E059E
:103FB0000F900F900F900F900F900F9092CC92E077
:103FC000EACF8091230687FF14C08DE41F928F9360
:103FD00080914706282F082E000C330B3F938F93B8
:103FE000EBECF2E0FF93EF931F930F930E9493315A
:103FF0001FC081E4EBCF80912006A0903106B12C48
:1040000080FD03C078E1A72EB12C0E941F191F92DA
:104010008F93809132061F928F93BF92AF921F921F
:1040200086E08F933F922F921F930F930E949331BC
:1040300081E080931E050FB6F894DEBF0FBECDBFA2
:1040400050CC40E070E060E030E020E090E080E0C4
:1040500001CF809121068F93809120068F938091CC
:1040600032061F928F93EEE4F2E0BCCF80911D06E2
:104070008F5F1F928F93809118068F5F1F928F938F
:10408000809101068F5F1F928F9381ED92E09F9345
:104090008F931F930F930E949331CACF8091420553
:1040A0008F93809141058F9380913E058F938091EE
:1040B0003D058F93809140058F9380913F058F93AD
:1040C00086EF92E0E4CF0E94290929833A834B834B
:1040D0005C836D837E831F927F938D811F928F936C
:1040E0008C811F928F938B811F928F938A811F9255
:1040F0008F9389811F928F93ADEEB2E0BF93AF9300
:104100001F930F930E94933193CF6FE971E08EEF6D
:1041100094E00E94993060E573E08EEF94E00E9495
:1041200081316CED70E08EEF94E00E948E30EBCE2A
:10413000A282D0CA1092FE0410921E05CBCAA89586
:104140008CE795E00E945308882391F090917F05B9
:10415000923071F440918005509181056091820503
:1041600070918305452B462B472B11F410927F0548
:1041700090917F05992309F4F8C0913069F440913A
:104180008005509181056091820570918305452BD2
:10419000462B472B09F0DEC1809120069091210625
:1041A00097FD1EC010912406145080917F05813028
:1041B00009F01BC18091800590918105A091820535
:1041C000B0918305892B8A2B8B2B51F410927F059C
:1041D00081E01B3008F080E00E94DA1381112AC1CF
:1041E0000E9486056B017C0180913705909138050E
:1041F000A0913905B0913A05A7019601281B390B0A
:104200004A0B5B0BDA01C901883E9340A105B10559
:1042100008F495C080913B0520E036EF8823C1F17A
:1042200080913C0591E09093F403809316041092E2
:10423000F5031092170460E085EE95E00E94FA08FD
:104240000E94110262E080913C050E94BE01109222
:10425000D0038093D103B0E0A0E0823050F00E9400
:10426000A106082F10E0102F00270E94A106D801F8
:10427000A82B35E0B595A7953A95E1F729E130E00F
:104280000E946A3124E130E040E050E00E94363183
:1042900030933E0520933D0511E01093F40388E62A
:1042A000809316041092F503109217046EE085EEC9
:1042B00095E00E94FA0860E285EE95E00E94FA0817
:1042C0000E9411021093F4031092F5031092170448
:1042D00061E185EE95E00E94FA080E94110262E019
:1042E00088E60E94BE011092D0038093D1038823F8
:1042F00009F429C10E94A106182F0E94A106912F3E
:1043000026E0959587952A95E1F74AE0489F900128
:10431000499F300D112437FF02C02D5F3F4F359567
:104320002795359527953093400520933F05C092FA
:104330003705D0923805E0923905F0923A052A9671
:104340000FB6F894DEBF0FBECDBFDF91CF911F91A6
:104350000F91FF90EF90DF90CF90BF90AF909F9024
:104360008F907F903F902F9008958111F6C080919B
:10437000800590918105A0918205B0918305892BDC
:104380008A2B8B2B51F40E948605609380057093D5
:10439000810580938205909383050E948605009194
:1043A0008005109181052091820530918305DC0103
:1043B000CB01801B910BA20BB30B20917F05211128
:1043C00009C0C297A105B10508F4E6CE81E080934B
:1043D0007F05E2CE213009F0DFCE843F9140A10578
:1043E000B10508F4D9CE82E0F2CF823009F0F8CEE0
:1043F0008091800590918105A0918205B0918305FF
:104400000097A105B10509F4EBCE80938405909344
:104410008505A0938605B0938705109280051092BC
:104420008105109282051092830580913605877F61
:10443000809336058091880590918905009709F44D
:1044400050C0DC01ED91FC910480F581E02D0995CF
:104450009093890580938805009779F1B5E08E3DAA
:104460009B0729F010E0E5E0883D9E0719F4DC0188
:1044700014961C91DC01ED91FC910190F081E02DEE
:1044800009958091880590918905B5E08E3D9B073F
:1044900029F0E5E0883D9E0709F0A2CE112309F43A
:1044A0009FCE1150DC0114961C931497ED91FC9152
:1044B0000280F381E02D099593CE0E94AB0280919A
:1044C00066058F7B8093660581E00E945E10809177
:1044D000220690912306977F9093230680932206CD
:1044E0007FCE8091220690912306986090932306B8
:1044F0008093220690912406925081E0923008F039
:1045000080E091E089278093E40510928A058091EC
:10451000660580648093660588ED95E01B3020F089
:104520000E94BE138EED95E09093890580938805D7
:104530008091880590918905DC01ED91FC910190B5
:10454000F081E02DB8CF80E096EF90934005809306
:104550003F05EDCE882309F420CF109280051092FC
:104560008105109282051092830516CEB12CA12CE4
:10457000C2CBCF93C82F80912206909123068260F0
:10458000909323068093220682E00E945E1080E0D2
:104590000E949B0F0E94291B8091F1059091F205CA
:1045A0000297C1F370E060E090E080E00E94D207E3
:1045B0000E9488028111EECFCC2361F31092240671
:1045C00080912206909123068D7F909323068093FD
:1045D0002206CF9108951F920F920FB60F921124C9
:1045E0002F933F934F935F936F937F938F939F93FB
:1045F000AF93BF93EF93FF938FE594E00E94B103D5
:10460000FF91EF91BF91AF919F918F917F916F91AA
:104610005F914F913F912F910F900FBE0F901F9080
:1046200018951F920F920FB60F9211242F938F930C
:104630009F93EF93FF93E0916F04F091700480815A
:10464000E0917504F091760482FD1BC09081809109
:1046500078048F5F8F7320917904821741F0E09185
:104660007804F0E0E15AFB4F958F80937804FF9136
:10467000EF919F918F912F910F900FBE0F901F90F0
:1046800018958081F4CF1F920F920FB60F921124CC
:104690002F933F938F939F93AF93BF938091C803C2
:1046A0009091C903A091CA03B091CB033091C70385
:1046B00020E4230F2D3728F023EC230F0196A11DB2
:1046C000B11D2093C7038093C8039093C903A0939F
:1046D000CA03B093CB038091CC039091CD03A091FA
:1046E000CE03B091CF030196A11DB11D8093CC03E1
:1046F0009093CD03A093CE03B093CF03BF91AF911E
:104700009F918F913F912F910F900FBE0F901F900F
:1047100018951F920F920FB60F9211242F933F936B
:104720004F935F936F937F938F939F93AF93BF93B9
:10473000EF93FF93E0910201F09103010995FF913E
:10474000EF91BF91AF919F918F917F916F915F9109
:104750004F913F912F910F900FBE0F901F90189582
:104760001F920F920FB60F9211242F933F934F93E6
:104770005F936F937F938F939F93AF93BF93EF93C9
:10478000FF93E0910001F09101010995FF91EF91F4
:10479000BF91AF919F918F917F916F915F914F9159
:1047A0003F912F910F900FBE0F901F9018951F9261
:1047B0000F920FB60F9211242F933F934F935F9355
:1047C0006F937F938F939F93AF93BF93EF93FF93D9
:1047D0008091B900887F803609F44AC0F0F58832AC
:1047E00009F4A5C018F5803109F499C0B8F48823FC
:1047F00009F4F2C0883009F492C0FF91EF91BF91A3
:10480000AF919F918F917F916F915F914F913F9168
:104810002F910F900FBE0F901F901895883109F4BB
:1048200086C0803251F780935C0414C0803409F450
:104830009BC040F48033B9F38833F9F680935C046D
:1048400085ECAEC0803509F483C0883509F494C086
:10485000883499F60E94AA08D0CF883909F48AC012
:1048600038F5883729F050F4883611F0803729F66A
:1048700083E080935E041092BA0355C0883809F42F
:1048800079C0803919F0803809F0B7CF8091BA0328
:10489000803208F06FC0E091BA0381E08E0F809300
:1048A000BA038091BB00F0E0E656FC4F80833BC02A
:1048B000803B39F0D0F4803A09F477C0883A09F0A7
:1048C0009CCF84E080935E04109299031092980329
:1048D000F0E0E0E009958091980381110FC081E03C
:1048E000809398031092780309C0803C09F4A8CF04
:1048F000883C09F4A5CF883B09F07FCFE09199036C
:1049000081E08E0F80939903F0E0E858FC4F80819E
:104910008093BB00909199038091980329C0809166
:1049200059048093BB0085EC8093BC0066CF9091C6
:104930005B0480915A04981758F5E0915B0481E07C
:104940008E0F80935B04F0E0E85CFB4F8081E9CF41
:10495000E0915B0481E08E0F80935B048091BB004B
:10496000F0E0E85CFB4F808390915B0480915A04F7
:104970009817C8F285E8D8CFE0915B0481E08E0FEC
:1049800080935B048091BB00F0E0E85CFB4F808388
:1049900080915D0481115ECF81E08093580484EAA8
:1049A0008093BC0010925E0428CF8091BA038032BD
:1049B00030F4E091BA03F0E0E656FC4F10820E941A
:1049C000AA086091BA0370E08AE993E0F0E0E0E0C1
:1049D00009951092BA0334CF10925C043BCFCF9369
:1049E000109262041092610488EE93E0A0E0B0E0BF
:1049F0008093630490936404A0936504B093660469
:104A00008CE291E09093600480935F0485EC90E0E9
:104A100090936C0480936B0484EC90E090936E040C
:104A200080936D0480EC90E09093700480936F0409
:104A300081EC90E0909372048093710482EC90E09A
:104A4000909374048093730486EC90E090937604C2
:104A500080937504109278041092790410927A046D
:104A600010927B04109235058EE391E09093FD0443
:104A70008093FC048EE791E09093DF058093DE0540
:104A800080ED92E09093E1058093E00580E091E075
:104A9000980FE82FF0E0EE0FFF1FE059FE4F208146
:104AA0003181232B09F01BC18093E3058AE691E055
:104AB0009093D9058093D8058AEC92E09093DB051A
:104AC0008093DA0580E091E0980FE82FF0E0EE0F98
:104AD000FF1FE05AFE4F20813181232B09F001C1D5
:104AE0008093DD0584E192E09093D2058093D10517
:104AF00082E093E09093D4058093D3058AE092E01E
:104B00009093CD058093CC058AEF92E09093CF05EA
:104B10008093CE0580E092E09093C8058093C7050E
:104B200080EF92E09093CA058093C90526EF31E0AB
:104B30003093C3052093C2052CEE31E03093BE05BF
:104B40002093BD059093C0058093BF0582EE91E050
:104B50009093B9058093B80588ED91E09093B405E2
:104B60008093B3058EEC91E09093AF058093AE05F2
:104B700084EC91E09093AA058093A90584EE92E0DD
:104B80009093AC058093AB052AEB31E03093A505FB
:104B90002093A4059093A7058093A60580EB91E050
:104BA0009093A00580939F0586EA91E090939B05E2
:104BB00080939A058CE991E09093960580939505F2
:104BC00082E991E0909391058093900588E891E0C7
:104BD00090938C0580938B0589ED92E090938E05E0
:104BE00080938D0510927F051092800510928105AB
:104BF000109282051092830510928405109285050B
:104C000010928605109287051092890510928805EA
:104C10001092500510924F0580E591E090934E055B
:104C200080934D0510925D058FEF80935C05109287
:104C30005B0510925E0587E2809358051092590536
:104C400010925A05109257051092560584E08093F1
:104C50005F0582E080936005C1E0C093610580E15B
:104C60008093620580E28093630580E4809364050D
:104C700080E88093650550E040E063E08DE495E0D6
:104C80000E94A60680EA95E1AFEFBFEF8093490549
:104C900090934A05A0934B05B0934C0510923B05A9
:104CA00088E480933C051092E8051092E70588EEB1
:104CB00093E0A0E0B0E08093E9059093EA05A0932B
:104CC000EB05B093EC058EE192E09093E6058093BE
:104CD000E505C093020610920306CF910895892F2F
:104CE000D6CE892FF0CECF93DF9300D000D01F9285
:104CF000CDB7DEB78091F20080618EBB80E88093F3
:104D0000F2009EB39093F2008093610011E0109343
:104D100061009091F2009F799EBB8093F2009EB358
:104D20009093F2009091F2009B7F9EBB8093F200E3
:104D30009EB39093F200809361001092610078948A
:104D400084B5826084BD84B5816084BD85B5826090
:104D500085BD85B5816085BD80916E008160809341
:104D60006E001092810080918100826080938100AA
:104D700080918100816080938100809180008160BA
:104D8000809380008091B10084608093B100809115
:104D9000B00081608093B000809191008260809328
:104DA00091008091910081608093910080919000AA
:104DB00081608093900080917A00846080937A0073
:104DC00080917A008D7F80937A0080917A008E7F27
:104DD00080937A0080917A00806880937A001092A4
:104DE000C1000FB6F894A895809160008861809307
:104DF0006000109260000FBE60E971E080E090E01A
:104E00000E945305E0916F04F091700482E080836A
:104E1000E0916B04F0916C041082E0916D04F091CC
:104E20006E0482E2808310927704E0917304F09123
:104E3000740486E08083E0917104F09172048081B3
:104E400080618083E0917104F091720480818860B8
:104E50008083E0917104F091720480818068808386
:104E6000E0917104F091720480818F7D808369E00C
:104E700073E08FE594E00E94C20D6FEA72E08FE567
:104E800094E00E94C20D86E290E090937D058093AD
:104E90007C05E8E0FE2EF0927E0561E070E08CE794
:104EA00095E00E9462061092D0031092D1031092F6
:104EB000F5031092170410925E0410935D04109293
:104EC000580488B1806388B98091B9008E7F80933F
:104ED000B9008091B9008D7F8093B90080E2809302
:104EE000B80085E48093BC00A8951093660520E087
:104EF00042E060E18DE495E00E94360C61E08DE4D3
:104F000095E00E940F0B6CE271E080E00E94A71A0E
:104F100064E271E081E00E94A71A6CE171E082E036
:104F20000E94A71A64E171E083E00E94A71A6CE076
:104F300071E085E00E94A71A8DE495E00E948E0B37
:104F400062E071E090E080E00E949B0C40E150E064
:104F50006CEF70E087E695E00E94A0301092770534
:104F600041E060E08DE495E00E94DF0667E675E0D1
:104F70008DE495E00E94460E8FE991E00E94B20E0A
:104F80006CED75E080E090E00E943706A8951092E5
:104F900034051092FE0410921E05579889B1881F9F
:104FA0008827881F80934E0603E210E0109349067D
:104FB00000934806F0924A0688E496E00E9458065C
:104FC00010934C0600934B0680E180934D068BE4D2
:104FD00096E00E9458060E949707109224061092AD
:104FE000250682E090E00E94B7307C0185E290E0E7
:104FF0000E94AF30182F80931E0686E290E00E9438
:10500000AF3080931F0611501E3F30F084E680932E
:105010001E068FEF80931F066FE073E08FE594E02C
:105020000E94460E80911E060E94BE186FE173E03A
:105030008FE594E00E94460E80911F060E94BE18E4
:1050400080914E06882309F486C085E00E948C0278
:1050500086E00E948C0283E290E090930B0680939E
:105060000A0682E080930C068AE096E00E945806C9
:1050700009E210E010930E0600930D0688E080937D
:105080000F0661E070E08DE096E00E9462061093EA
:1050900011060093100680E18093120661E070E033
:1050A00080E196E00E946206D0904E061093F405CF
:1050B0000093F30584E08093F50570E060E083EFF2
:1050C00095E00E9462068CE797E09093010180933F
:1050D000000180916900836080936900E89A86E00E
:1050E0008D8389E290E0DD2019F01D8283E290E05B
:1050F0002D819093FA058093F90581E001C0880F16
:105100002A95EAF78093FB0589EF95E00E945806FF
:105110000E945D080E944D071092800080E89EE387
:10512000909387008093860081E180938100229A8A
:105130008091800080628093800090E080E00E94F7
:10514000FC012FEFE216F20609F5109221061092EB
:10515000200602E022C083E290E09093050680934F
:10516000040681E08093060684E096E00E945806DB
:1051700089E290E0909308068093070680E8809388
:10518000090687E096E00E94580665CFF092210656
:10519000E092200601E0E0FCDCCF809120069091B7
:1051A0002106806A90932106809320060E94D41ADB
:1051B0008091200690912106916090932106809322
:1051C000200680E092E090932306809322068FEFE2
:1051D00091E00E94AF308093310681508E3F18F0ED
:1051E00080E5809331061092000681E190E00E94F4
:1051F000AF30809301061092170682E190E00E9482
:10520000AF30809318061092190610921A06109269
:105210001B0610921C0683E190E00E94AF30809341
:105220001D06109213061092140610921506109285
:10523000160681E00E949B0F809120069091210626
:105240009C012E713670232B91F181FF04C083E9FC
:1052500091E00E94BC0C8091200682FF04C082E88D
:1052600091E00E94BC0C8091200683FF04C085E77A
:1052700091E00E94BC0C8091200684FF04C085E66A
:1052800091E00E94BC0C809120069091210691FF34
:1052900004C087E591E00E94BC0C809120069091AB
:1052A000210692FF04C087E491E00E94BC0CA895FF
:1052B0008091200690912106880F892F881F990BD5
:1052C000919580FF06C06EE273E08FE594E00E9446
:1052D000460E90E080E00E94FC0164E371E08EE302
:1052E00091E00E94AD0C8091200684FD48C00E9490
:1052F0006F08209120063091210634FF3EC081FDC9
:105300003EC069E472E089E292E00E94AD0C14E0D4
:1053100090E080E00E94FC0180912006909121069F
:10532000880F892F881F990B919580FF0AC06CE325
:1053300073E08FE594E00E94460E812F90E00E947A
:10534000D518A895209120063091210624FD2BC068
:10535000143049F588E08093240681E031FD25C0B2
:10536000153019F589E0809324060E94791A81E0AE
:105370000E949B0F0E94291BFDCF833011F6809164
:1053800020069091210691FF02C010E0C1CF0E943B
:10539000280B8823D1F364E272E089E292E00E9454
:1053A000AD0C15E0B5CF80E0D9CF8111DECF60E044
:1053B000802F0E94D91A8091430581110E94BE134B
:1053C0000E94791A84E090E00E94AF308F3F09F08C
:1053D000EDC01092430560E084E090E00E94BD3093
:1053E000809122069091230620914305222309F4FF
:1053F000E0C09061909323068093220685E090E0C0
:105400000E94AF308F3F09F0D6C01092440560E093
:1054100085E090E00E94BD3086E090E00E94AF30D1
:105420008F3F09F0CBC085E08093450565E086E0BD
:1054300090E00E94BD3087E090E00E94AF308F3F47
:1054400009F0BFC086E08093460566E087E090E003
:105450000E94BD3088E090E00E94AF308F3F09F09D
:10546000B3C087E38093470567E388E090E00E943C
:10547000BD30109248051092360580E096EF90936B
:105480003E0580933D059093400580933F059093A2
:1054900042058093410580913C0511E01093F4038F
:1054A000809316041092F5031092170460E085EEC5
:1054B00095E00E94FA080E941102882309F487C02F
:1054C00010923B0588E19FE00FB6F894A895809371
:1054D00060000FBE9093600058EE452E53E0552EAD
:1054E000612C712C47E0342EA8954FEF5FEF5A8363
:1054F00049830E9486056B017C01809124068F3FC1
:1055000009F078C08093250680E00E945E100E941A
:10551000291B809124069CEF980F9B30D0F18F3F80
:10552000C1F1809143058823A1F10E946A0288237A
:1055300081F10E9486056B017C0180914905909163
:105540004A05A0914B05B0914C0546015701881AB8
:10555000990AAA0ABB0AD501C401893E9340A10554
:10556000B105B8F00E94D709909124062091480512
:10557000882309F4BEC52111B6C59E3F11F40E94CF
:10558000AB02C0924905D0924A05E0924B05F092D9
:105590004C0540E050E0452B09F4A6CF0E949D0346
:1055A000882309F49FCF0E9400009CCF809343057D
:1055B00017CF9F7E1FCF809344052ECF8093450544
:1055C0003ACF8093460546CF8093470552CF62E09D
:1055D00080913C050E94BE011092D0038093D103BC
:1055E000823008F46DCF0E94A1060E94A10610939C
:1055F0003B0568CFBE016F5F7F4FCE0103960E94CF
:10560000D2070091220610912306C80188279570C1
:105610000097B9F081159540A1F00E948802882377
:1056200081F01092430610924406109245061092A3
:10563000460610923B0610923C0610923D061092D0
:105640003E06809124068E3F09F048C006FD04C046
:1056500002FD1FC011E029C089819A818C309340DE
:1056600098F48091370690913806A0913906B09150
:105670003A06C81AD90AEA0AFB0A38EBC3163BE015
:10568000D306E104F10410F00E944D078091240636
:1056900039CF0E9488028111DDCF0B7F1093230642
:1056A000009322061092240610E080912206909129
:1056B000230688279570009779F08115954061F051
:1056C0000E948802811102C01092480581E00E9468
:1056D0005E1080E00E949B0F1111D8CF009124062C
:1056E0000E946F082091200630912106A9014427CD
:1056F000507134FF04C023FD02C080FD52C0909160
:10570000220696FD14C04115510509F401C124FD7E
:1057100074C0452B09F426C181FF27C110921906D8
:1057200010921A0610921B0610921C0666C024FFE7
:105730004CC0452B09F061C04091330650913406AE
:10574000609135067091360646015701841A950A14
:10575000A60AB70AB501A401493E53406105710587
:1057600008F44BC023FD49C0833009F046C0309295
:1057700024060E944D07073059F0609118066F5FAC
:105780006E3F30F46093180682E190E00E94BD30D5
:10579000C0921306D0921406E0921506F0921606F7
:1057A00011C0309224060E944D07073059F06091D5
:1057B00018066F5F6E3F30F46093180682E190E048
:1057C0000E94BD3010E087E024C0452B09F4B4CF1F
:1057D000409133065091340660913506709136063B
:1057E00046015701841A950AA60AB70AB501A40111
:1057F000493E53406105710518F480E011E009C08D
:1058000081FFFBCF0E944D073EE03093240610E05D
:105810008EE09091F6059923E9F086E080932406C6
:10582000063009F4F8C0609101066F5F6E3F30F4F6
:105830006093010681E190E00E94BD301092000665
:10584000C092FC05D092FD05E092FE05F092FF05A6
:1058500010E086E0209120063091210632FD19C02B
:1058600020914105309142052E3E324074F4209142
:105870003D0530913E05263C32403CF420913F05E9
:1058800030914005263C324024F08AE08093240683
:1058900010E02090280690E0112309F413C18CEF4A
:1058A000800F8B3038F490E080E00E94FC01109271
:1058B000240600E02091200621FD0CC08091F10516
:1058C0009091F205019731F48B819C818430914055
:1058D00008F0E8C089819A818B3643E0940708F08C
:1058E000D6C08C3053E0950708F0D4C0823B32E03C
:1058F000930708F4C5C08091F1059091F2050197D6
:1059000009F0CBC093E023E00213CEC0802FDAC0B1
:10591000073009F0FCCE0E948802811103C010926A
:105920002406F2CD809117068630C8F44091130604
:1059300050911406609115067091160646015701A4
:10594000841A950AA60AB70AB501A401413E534933
:105950006440710520F08F5F809317064ECF309220
:10596000240630CF833009F4D9CE0830A1F08091DD
:10597000190690911A06A0911B06B0911C06892B5E
:105980008A2B8B2B41F4C0921906D0921A06E09212
:105990001B06F0921C068091370690913806A09164
:1059A0003906B0913A0646015701881A990AAA0A9F
:1059B000BB0AD501C401893E9340A105B105A8F0F9
:1059C0008091190690911A06A0911B06B0911C06B1
:1059D00046015701881A990AAA0ABB0AD501C401CF
:1059E000893E9340A105B10540F4083009F005CF88
:1059F00088E08093240610E00CCF0830C9F3609152
:105A00001D066F5F6E3FA0F760931D0683E190E077
:105A10000E94BD30EDCF0E948802811105C0109216
:105A200024060E945D0870CD8091FC059091FD05D3
:105A3000A091FE05B091FF0546015701881A990A09
:105A4000AA0ABB0AD501C401803E9349A440B1050E
:105A500008F4FECE809100068F5F809300068730A9
:105A600020F081E00E94B9224FCD0E945D08109283
:105A7000FC051092FD051092FE051092FF05E8CE80
:105A8000892B69F094E022FD3ECF24E00DC0912FD8
:105A9000212F3ACF92E022E037CF93E0FCCF90E085
:105AA00020E032CF95E025E080912606821709F4A8
:105AB00096C1C0922906D0922A06E0922B06F09257
:105AC0002C06822F291669F020912706921709F4D7
:105AD000ABC1C0922D06D0922E06E0922F06F09216
